{
    "contractName": "DenunciaAnonima",
    "abi": [
        {
            "inputs": [],
            "stateMutability": "nonpayable",
            "type": "constructor"
        },
        {
            "inputs": [
                {
                    "internalType": "address",
                    "name": "owner",
                    "type": "address"
                }
            ],
            "name": "OwnableInvalidOwner",
            "type": "error"
        },
        {
            "inputs": [
                {
                    "internalType": "address",
                    "name": "account",
                    "type": "address"
                }
            ],
            "name": "OwnableUnauthorizedAccount",
            "type": "error"
        },
        {
            "anonymous": false,
            "inputs": [
                {
                    "indexed": true,
                    "internalType": "address",
                    "name": "denunciante",
                    "type": "address"
                },
                {
                    "indexed": false,
                    "internalType": "string",
                    "name": "tipoAcoso",
                    "type": "string"
                },
                {
                    "indexed": false,
                    "internalType": "string",
                    "name": "ipfsHash",
                    "type": "string"
                },
                {
                    "indexed": false,
                    "internalType": "bytes",
                    "name": "proof",
                    "type": "bytes"
                },
                {
                    "indexed": false,
                    "internalType": "uint256[]",
                    "name": "publicSignals",
                    "type": "uint256[]"
                }
            ],
            "name": "DenunciaCreada",
            "type": "event"
        },
        {
            "anonymous": false,
            "inputs": [
                {
                    "indexed": true,
                    "internalType": "address",
                    "name": "previousOwner",
                    "type": "address"
                },
                {
                    "indexed": true,
                    "internalType": "address",
                    "name": "newOwner",
                    "type": "address"
                }
            ],
            "name": "OwnershipTransferred",
            "type": "event"
        },
        {
            "inputs": [
                {
                    "internalType": "string",
                    "name": "_tipoAcoso",
                    "type": "string"
                },
                {
                    "internalType": "string",
                    "name": "_ipfsHash",
                    "type": "string"
                },
                {
                    "internalType": "bytes",
                    "name": "_proof",
                    "type": "bytes"
                },
                {
                    "internalType": "uint256[]",
                    "name": "_publicSignals",
                    "type": "uint256[]"
                }
            ],
            "name": "crearDenuncia",
            "outputs": [],
            "stateMutability": "nonpayable",
            "type": "function"
        },
        {
            "inputs": [
                {
                    "internalType": "uint256",
                    "name": "",
                    "type": "uint256"
                }
            ],
            "name": "denuncias",
            "outputs": [
                {
                    "internalType": "address",
                    "name": "denunciante",
                    "type": "address"
                },
                {
                    "internalType": "string",
                    "name": "tipoAcoso",
                    "type": "string"
                },
                {
                    "internalType": "string",
                    "name": "ipfsHash",
                    "type": "string"
                },
                {
                    "internalType": "uint256",
                    "name": "timestamp",
                    "type": "uint256"
                },
                {
                    "internalType": "bytes",
                    "name": "proof",
                    "type": "bytes"
                }
            ],
            "stateMutability": "view",
            "type": "function"
        },
        {
            "inputs": [
                {
                    "internalType": "address",
                    "name": "",
                    "type": "address"
                },
                {
                    "internalType": "uint256",
                    "name": "",
                    "type": "uint256"
                }
            ],
            "name": "denunciasPorDenunciante",
            "outputs": [
                {
                    "internalType": "uint256",
                    "name": "",
                    "type": "uint256"
                }
            ],
            "stateMutability": "view",
            "type": "function"
        },
        {
            "inputs": [
                {
                    "internalType": "uint256",
                    "name": "_denunciaId",
                    "type": "uint256"
                }
            ],
            "name": "obtenerDenuncia",
            "outputs": [
                {
                    "components": [
                        {
                            "internalType": "address",
                            "name": "denunciante",
                            "type": "address"
                        },
                        {
                            "internalType": "string",
                            "name": "tipoAcoso",
                            "type": "string"
                        },
                        {
                            "internalType": "string",
                            "name": "ipfsHash",
                            "type": "string"
                        },
                        {
                            "internalType": "uint256",
                            "name": "timestamp",
                            "type": "uint256"
                        },
                        {
                            "internalType": "bytes",
                            "name": "proof",
                            "type": "bytes"
                        },
                        {
                            "internalType": "uint256[]",
                            "name": "publicSignals",
                            "type": "uint256[]"
                        }
                    ],
                    "internalType": "struct DenunciaAnonima.Denuncia",
                    "name": "",
                    "type": "tuple"
                }
            ],
            "stateMutability": "view",
            "type": "function"
        },
        {
            "inputs": [
                {
                    "internalType": "address",
                    "name": "_denunciante",
                    "type": "address"
                }
            ],
            "name": "obtenerDenunciasPorDenunciante",
            "outputs": [
                {
                    "internalType": "uint256[]",
                    "name": "",
                    "type": "uint256[]"
                }
            ],
            "stateMutability": "view",
            "type": "function"
        },
        {
            "inputs": [],
            "name": "owner",
            "outputs": [
                {
                    "internalType": "address",
                    "name": "",
                    "type": "address"
                }
            ],
            "stateMutability": "view",
            "type": "function"
        },
        {
            "inputs": [],
            "name": "renounceOwnership",
            "outputs": [],
            "stateMutability": "nonpayable",
            "type": "function"
        },
        {
            "inputs": [],
            "name": "totalDenuncias",
            "outputs": [
                {
                    "internalType": "uint256",
                    "name": "",
                    "type": "uint256"
                }
            ],
            "stateMutability": "view",
            "type": "function"
        },
        {
            "inputs": [
                {
                    "internalType": "address",
                    "name": "newOwner",
                    "type": "address"
                }
            ],
            "name": "transferOwnership",
            "outputs": [],
            "stateMutability": "nonpayable",
            "type": "function"
        }
    ],
    "bytecode": "608080604052346071573315605e575f8054336001600160a01b0319821681178355916001600160a01b03909116907f8be0079c531659141344cd1fd0a4f28419497f9722a3daafe3b4186f6b6457e09080a3610ceb90816100768239f35b631e4fbdf760e01b5f525f60045260245ffd5b5f80fdfe60806040526004361015610011575f80fd5b5f3560e01c8063075fd0fa146109a35780631c1a2b4b14610986578063715018a61461092f57806372281b2014610767578063884d4610146106a25780638da5cb5b1461067b5780639db40a511461062b578063b02bad47146101055763f2fde38b1461007c575f80fd5b34610101576020366003190112610101576100956109fb565b61009d610c8f565b6001600160a01b031680156100ee575f80546001600160a01b03198116831782556001600160a01b0316907f8be0079c531659141344cd1fd0a4f28419497f9722a3daafe3b4186f6b6457e09080a3005b631e4fbdf760e01b5f525f60045260245ffd5b5f80fd5b346101015760803660031901126101015760043567ffffffffffffffff811161010157610136903690600401610bce565b60243567ffffffffffffffff811161010157610156903690600401610bce565b60443567ffffffffffffffff8111610101573660238201121561010157610187903690602481600401359101610b88565b6064359267ffffffffffffffff841161010157366023850112156101015783600401359367ffffffffffffffff851161048a578460051b604051956101cf6020830188610b33565b8652602460208701918301019136831161010157602401905b82821061061b5750505060035460405161020181610b17565b33815260208101908382526040810186815260608201428152608083019187835260a08401948a8652865f52600160205260405f209460018060a01b039051166bffffffffffffffffffffffff60a01b86541617855560018501905180519067ffffffffffffffff821161048a576102838261027d8554610a5e565b85610c4c565b602090601f83116001146105b8576102b292915f91836105ad575b50508160011b915f199060031b1c19161790565b90555b518051600285019167ffffffffffffffff821161048a576102da8261027d8554610a5e565b602090601f831160011461054a5761030892915f918361053f5750508160011b915f199060031b1c19161790565b90555b516003830155518051600483019167ffffffffffffffff821161048a576103368261027d8554610a5e565b602090601f83116001146104d85791806103699260059695945f926104cd5750508160011b915f199060031b1c19161790565b90555b0190519081519167ffffffffffffffff831161048a57600160401b831161048a5760209082548484558085106104b2575b5001905f5260205f205f5b83811061049e5750505050335f52600260205260405f208054600160401b81101561048a576103dc91600182018155610a11565b819291549060031b91821b915f19901b19161790556003545f19811461047657610462610446936104547f4aaf5ddd77becca321430e9e94611156b8958de1684138b1a20e93e375bdbb7a9660016104719501600355604051968796608088526080880190610a3a565b908682036020880152610a3a565b908482036040860152610a3a565b82810360608401523395610b55565b0390a2005b634e487b7160e01b5f52601160045260245ffd5b634e487b7160e01b5f52604160045260245ffd5b6001906020845194019381840155016103a8565b6104c790845f5285845f209182019101610c36565b8961039d565b015190508c8061029e565b90601f19831691845f52815f20925f5b81811061052757509160019391856005989796941061050f575b505050811b01905561036c565b01515f1960f88460031b161c191690558b8080610502565b929360206001819287860151815501950193016104e8565b015190508d8061029e565b90601f19831691845f52815f20925f5b818110610595575090846001959493921061057d575b505050811b01905561030b565b01515f1960f88460031b161c191690558c8080610570565b9293602060018192878601518155019501930161055a565b015190508e8061029e565b90601f19831691845f52815f20925f5b81811061060357509084600195949392106105eb575b505050811b0190556102b5565b01515f1960f88460031b161c191690558d80806105de565b929360206001819287860151815501950193016105c8565b81358152602091820191016101e8565b34610101576020366003190112610101576001600160a01b0361064c6109fb565b165f52600260205261067761066360405f20610bec565b604051918291602083526020830190610b55565b0390f35b34610101575f366003190112610101575f546040516001600160a01b039091168152602090f35b34610101576020366003190112610101576004355f52600160205260405f2060018060a01b03815416610677604051926106ea846106e38160018501610a96565b0385610b33565b600461075460405161070a816107038160028801610a96565b0382610b33565b61072a6003850154946107236040518096819301610a96565b0384610b33565b610746604051978897885260a0602089015260a0880190610a3a565b908682036040880152610a3a565b9160608501528382036080850152610a3a565b3461010157602036600319011261010157600435606060a060405161078b81610b17565b5f81528260208201528260408201525f8382015282608082015201526003548110156108f5575f52600160205260405f206040516107c881610b17565b81546001600160a01b03168152604051916107ea836107238160018501610a96565b602082019283526108b060405191610809836107238160028501610a96565b604084019283526003810154906060850191825261089761084e6005604051936108418561083a8160048501610a96565b0386610b33565b6080890194855201610bec565b9460a0870195865261088460405198899860208a5260018060a01b0390511660208a01525160c060408a015260e0890190610a3a565b9051878203601f19016060890152610a3a565b9151608086015251848203601f190160a0860152610a3a565b905190601f198382030160c0840152602080835192838152019201905f5b8181106108dc575050500390f35b82518452859450602093840193909201916001016108ce565b60405162461bcd60e51b815260206004820152601260248201527144656e756e636961206e6f2065786973746560701b6044820152606490fd5b34610101575f36600319011261010157610947610c8f565b5f80546001600160a01b0319811682556001600160a01b03167f8be0079c531659141344cd1fd0a4f28419497f9722a3daafe3b4186f6b6457e08280a3005b34610101575f366003190112610101576020600354604051908152f35b34610101576040366003190112610101576109bc6109fb565b6001600160a01b03165f90815260026020526040902080546024359190821015610101576020916109ec91610a11565b90549060031b1c604051908152f35b600435906001600160a01b038216820361010157565b8054821015610a26575f5260205f2001905f90565b634e487b7160e01b5f52603260045260245ffd5b805180835260209291819084018484015e5f828201840152601f01601f1916010190565b90600182811c92168015610a8c575b6020831014610a7857565b634e487b7160e01b5f52602260045260245ffd5b91607f1691610a6d565b5f9291815491610aa583610a5e565b8083529260018116908115610afa5750600114610ac157505050565b5f9081526020812093945091925b838310610ae0575060209250010190565b600181602092949394548385870101520191019190610acf565b915050602093945060ff929192191683830152151560051b010190565b60c0810190811067ffffffffffffffff82111761048a57604052565b90601f8019910116810190811067ffffffffffffffff82111761048a57604052565b90602080835192838152019201905f5b818110610b725750505090565b8251845260209384019390920191600101610b65565b92919267ffffffffffffffff821161048a5760405191610bb2601f8201601f191660200184610b33565b829481845281830111610101578281602093845f960137010152565b9080601f8301121561010157816020610be993359101610b88565b90565b90604051918281549182825260208201905f5260205f20925f5b818110610c1d575050610c1b92500383610b33565b565b8454835260019485019487945060209093019201610c06565b818110610c41575050565b5f8155600101610c36565b9190601f8111610c5b57505050565b610c1b925f5260205f20906020601f840160051c83019310610c85575b601f0160051c0190610c36565b9091508190610c78565b5f546001600160a01b03163303610ca257565b63118cdaa760e01b5f523360045260245ffdfea264697066735822122099716ddb0b0f092e7fd44ea787911ea46973b2d6fba442707f13859e9a132ca864736f6c634300081e0033",
    "sourcePath": "/Users/kevinkuo/Desktop/Hackathon/Nucleo/contracts/DenunciaAnonima.sol",
    "compiler": {
        "name": "solc",
        "version": "0.8.30+commit.73712a01"
    },
    "functionHashes": {
        "crearDenuncia(string,string,bytes,uint256[])": "b02bad47",
        "denuncias(uint256)": "884d4610",
        "denunciasPorDenunciante(address,uint256)": "075fd0fa",
        "obtenerDenuncia(uint256)": "72281b20",
        "obtenerDenunciasPorDenunciante(address)": "9db40a51",
        "owner()": "8da5cb5b",
        "renounceOwnership()": "715018a6",
        "totalDenuncias()": "1c1a2b4b",
        "transferOwnership(address)": "f2fde38b"
    },
    "gasEstimates": {
        "creation": {
            "codeDepositCost": "661400",
            "executionCost": "26500",
            "totalCost": "687900"
        },
        "external": {
            "crearDenuncia(string,string,bytes,uint256[])": "infinite",
            "denuncias(uint256)": "infinite",
            "denunciasPorDenunciante(address,uint256)": "6769",
            "obtenerDenuncia(uint256)": "infinite",
            "obtenerDenunciasPorDenunciante(address)": "infinite",
            "owner()": "2381",
            "renounceOwnership()": "28086",
            "totalDenuncias()": "2270",
            "transferOwnership(address)": "28335"
        }
    }
}